8=FIX.4.2|9=74|35=A|34=1|49=CLIENT|52=20211118-12:45:05.269|56=EXECUTOR|98=0|108=5|141=Y|10=046|8=FIX.4.2|9=112|35=D|34=2|49=CLIENT|52=20211118-12:45:09.410|56=EXECUTOR|11=456|21=3|40=1|54=1|55=AJCB|60=20211118-12:45:09.409|10=134|8=FIX.4.2|9=112|35=D|34=3|49=CLIENT|52=20211118-12:45:11.413|56=EXECUTOR|11=456|21=3|40=1|54=1|55=AJCB|60=20211118-12:45:11.413|10=119|8=FIX.4.2|9=112|35=D|34=4|49=CLIENT|52=20211118-12:45:13.415|56=EXECUTOR|11=456|21=3|40=1|54=1|55=AJCB|60=20211118-12:45:13.415|10=128|8=FIX.4.2|9=112|35=D|34=5|49=CLIENT|52=20211118-12:45:15.417|56=EXECUTOR|11=456|21=3|40=1|54=1|55=AJCB|60=20211118-12:45:15.417|10=137|8=FIX.4.2|9=112|35=D|34=6|49=CLIENT|52=20211118-12:45:17.419|56=EXECUTOR|11=456|21=3|40=1|54=1|55=AJCB|60=20211118-12:45:17.419|10=146|8=FIX.4.2|9=57|35=5|34=7|49=CLIENT|52=20211118-12:45:17.452|56=EXECUTOR|10=014|